:100000000C946B010C9488010C9488010C94880169
:100010000C9488010C9488010C9488010C9488013C
:100020000C9488010C9488010C9488010C9488012C
:100030000C9488010C9488010C9488010C9488011C
:100040000C9488010C9488010C9488010C9488010C
:100050000C948801CF07AF07B307B707BB07BF07EB
:10006000C307C707AD02B904B904B904B904B90498
:10007000B904B904B904B904B904B904B904B90498
:10008000B904B904B904B904B904B904B904B90488
:10009000B904B904B904B904B904B904B502C30276
:1000A000DA021A04B904F502130336033903B9045A
:1000B000B904B9045B03B904B904B904B904AA03C7
:1000C000BE03C703F103F303140436046004B90448
:1000D000B904B904B904B904B904B904AF02BD0242
:1000E000CE02E702EA02B9041303BD02B9044803D1
:1000F000B904B90453036303B9046603B90475036F
:10010000B904C103E203B90407041A0455047804CE
:1001100000407A10F35A00A0724E18090010A5D4BE
:10012000E80000E87648170000E40B54020000CA1B
:100130009A3B000000E1F505000080969800000061
:1001400040420F000000A0860100000010270000C0
:100150000000E803000000006400000000000A0046
:10016000000000000100000000002C76D888DC6749
:100170004F0823DFC1DFAE59E1B1B796E5E3E453A1
:10018000C63AE651997696E8E6C28426EB898C9BBE
:1001900062ED407C6FFCEFBC9C9F40F2BAA56FA55E
:1001A000F490055A2AF75C936B6CF9676DC11BFCE0
:1001B000E0E40D47FEF520E6B500D0ED902E0300FB
:1001C000943577050080841E080000204E0A000048
:1001D00000C80C333333330F986E12831141EF8D07
:1001E0002114893BE65516CFFEE6DB18D1844B3847
:1001F0001BF77C1D901DA4BBE424203284725E2278
:100200008100C9F124ECA1E53D274A616E75617258
:1002100079204665627275617279204D61726368FA
:1002200020417072696C204D6179204A756E65209D
:100230004A756C79204175677573742053657074C5
:10024000656D626572204F63746F626572204E6FD8
:1002500076656D62657220446563656D62657220C6
:100260000053756E646179204D6F6E64617920541E
:10027000756573646179205765646E65736461792F
:10028000205468757273646179204672696461797B
:10029000205361747572646179200053756E4D6FDF
:1002A0006E54756557656454687546726953617418
:1002B000004A616E4665624D61724170724D6179AE
:1002C0004A756E4A756C4175675365704F63744E1D
:1002D0006F764465630011241FBECFE5D8E0DEBF12
:1002E000CDBF11E0A0E6B0E0E0E5FCE202C0059081
:1002F0000D92A633B107D9F721E0A6E3B1E001C022
:100300001D92A63EB207E1F70E94740D0C942616CA
:100310000C94000064ED71E00E94910184ED91E085
:100320000895A4E0B0E0E7E9F1E00C94DE156C017B
:100330007B01E091E401F091E501309729F060EE56
:1003400071E009958C0102C00FEF1FEFF6014081AB
:100350005181628173818091E0019091E101A091CE
:10036000E201B091E301840F951FA61FB71F10167D
:1003700011064CF4A801012E000C660B770B840FBC
:10038000951FA61FB71F89839A83AB83BC83B701D0
:10039000CE0101960E948C05F701138702872496EF
:1003A000E8E00C94FA15A4E0B0E0E9EDF1E00C947B
:1003B000DE158C010E94C70669837A838B839C8338
:1003C000F8018285938597FF0EC0E091E401F091DA
:1003D000E501309741F060EE71E0CE01019609959C
:1003E000F80193878287F80182859385181619068C
:1003F00094F4092E000CAA0BBB0B49815A816B8126
:100400007C816A017B01C81AD90AEA0AFB0AC982FF
:10041000DA82EB82FC8289819A81AB81BC81409136
:10042000E0015091E1016091E2017091E301841BD0
:10043000950BA60BB70B89839A83AB83BC83B8015A
:10044000CE0101960E94910169817A818B819C8104
:100450002496E8E00C94FA15CF92DF92EF920F9376
:10046000CF93DF93E9016B01E82E5C2D3D2D2E2DFE
:10047000AE2DC6010196A11D442359F06C01EA2E50
:10048000E52FF32F849127FD8081803271F7415051
:10049000ECCFF6013491E7FC30816C01EA2E80E06C
:1004A000303241F41882DF91CF910F91EF90DF90BD
:1004B000CF9008958017B1F32196FE0131973083D4
:1004C0008F5FF6013491E7FC30819FEFC91AD90A9A
:1004D000E90AE6CFA2E2B0E0E0E7F2E00C94D4153E
:1004E0002C017AA369A34A017901612C712C9E0128
:1004F0002F5F3F4F690184E6282E312C98EDA92EFD
:1005000090E0B92E29A13AA16216730608F060C2E4
:10051000D4018C91853209F04FC211961C9115348B
:1005200031F01F3421F0B2E08B0E911C06C0F401B3
:10053000128194012D5F3F4F4901812F012E000C44
:10054000990BAA0BBB0BFC01B597E635F10508F03A
:1005500010C2EE5CFF4F0C94D80E85E2B5C003E0EC
:100560009601D70114964C9104C00FEF9601F70144
:10057000448161E672E080E00DC003E09601D7019E
:1005800015964C9104C00FEF9601F70145816AE082
:1005900072E080E00E942C0290E0F0C1B601C70139
:1005A0000E940E05F601CF018C199D0921912111A0
:1005B000FACFE4C1D70116968D919C911797845973
:1005C000984FB1010E946D157F936F9345C0F7015D
:1005D000838173C0F7018381282F082E000C330B11
:1005E0003F938F938DED90E05BC0D70113968C9174
:1005F0001397282F082E000C330B3F938F931596DB
:100600008C911597082E000C990B01969F938F9350
:1006100016968D919C9117978459984F9F938F931D
:1006200081EE90E0CCC0D70118966D917C9119971E
:1006300016968D919C911797AE01455E5F4F845938
:10064000984F0E945306173651F48B8D9C8DB10143
:100650000E946D159F938F9389EE90E021C08C8D41
:100660008F938B8D8F938EEE90E01AC0F70182816D
:1006700024C0D70112968C916CE00E944B159923EF
:1006800021F0892F990F990B16C18CE090E013C1CE
:10069000F7018085918501969F938F9383EF90E07A
:1006A0009F938F931AC1D70115968C91082E000C39
:1006B000990B019600C1F7018181282F082E000CAB
:1006C000330B3F93F9C08AE0898356C181E4898363
:1006D000D70112968C918C3014F080E589838DE4DB
:1006E0008A831B8282E090E049C1F70182816CE03D
:1006F0000E944B15992321F0892F990F990B02C065
:100700008CE090E0D7012C91422F022E000C550B6B
:100710005F932F9311962C91422F022E000C550BB4
:100720005F932F939F938F9388EF90E09F938F9386
:10073000DF92CF920E94BB140FB6F894DEBF0FBEBB
:10074000CDBFD70112962C912C300CF417C120E5A7
:100750002B8714C1F7018181282F082E000C330B41
:100760003F938F938281282F082E000C330B3F93E9
:100770008F9380E191E09F938F93F1C0D7018C918B
:100780009CCF69E071E0C6010E946D14F5C0F701CD
:100790008081282F082E000C330B3F938F9381818B
:1007A000282F082E000C330B3F938F938281282F24
:1007B000082E000C330B3F938F938BE091E09F93B7
:1007C0008F936EC0D70114968C91082E000C990B54
:1007D000009711F487E090E09F938F93E1E7F0E0BA
:1007E0007AC060E022C0D70118966D917C9119976C
:1007F00016968D919C911797AE01455E5F4F845977
:10080000984F0E9453068E8D8F938D8D55C0F701A2
:100810008481282F082E000C330B3F938F932AE1FD
:1008200031E03F932F9359C061E0C7010E94EF046C
:100830001F9242C0D70116968D919C911797B101D6
:100840000E946D159F938F93F7018381282F082EA7
:10085000000C330B3F938F938581082E000C990B6E
:1008600001969F938F932EEC30E018C0F7018081A2
:10087000282F082E000C330B3F938F938181282F54
:10088000082E000C330B3F938F938281282F082E64
:10089000000C330B3F938F932DE131E03F932F9367
:1008A000DF92CF920E94BB145EC0F70186819781D0
:1008B000B1010E946D159F938F93BF92AF920DC0AF
:1008C000D70116968D919C9117978459984F9F93B5
:1008D0008F93EAE1F1E0FF93EF93DF92CF920E94D2
:1008E000BB140F900F900F900F900F900F9046C079
:1008F0006091E0017091E1018091E2019091E3014A
:100900002CE330E040E050E00E94A31589019A01F9
:10091000F801D7011A968D919C911B976CE370E0BA
:100920000E946D15161617061CF4FB01E00FF11F4F
:10093000CF016CE370E00E946D1597FF03C09195A5
:10094000819591099F938F93CF016CE370E00E9492
:100950006D157F936F93ECE2F1E0FF93EF93DF92DD
:10096000CF920E94BB140FB6F894DEBF0FBECDBF6E
:1009700005C08FE389831A8281E090E09301280FFC
:10098000391FA9A1BAA12A173B0798F4D201F60191
:10099000AF014C195D09481759071CF441914D935B
:1009A000F7CF97FF02C080E090E0480E591E390152
:1009B000A9CDF20110820EC0D2018D932D01BFEF9F
:1009C0006B1A7B0A882331F0EFEF8E1A9E0A9ACDBC
:1009D000D2011C92C301A296E2E10C94F015FC0135
:1009E00020853185C90107964481841B910947FD03
:1009F0009395860F911DE7E0F0E0BF010E946D1511
:100A0000A901481B590BCA0157FD06C0BF010E942E
:100A10006D1581E0860F089580E00895A0E0B0E0B4
:100A2000E4E1F5E00C94DE158C01EB01FC0184811E
:100A3000682F660F680F8581582F550F580F9E013C
:100A400040E0862F840F90E0A0E085569D4FAF4F89
:100A5000FC018491A7FD8081F90181939F01852F7D
:100A6000840F90E0A0E08F549D4FAF4FFC01849124
:100A7000A7FD8081F90183834F5F433011F780E246
:100A80008F838B83BE01685F7F4FF801838140E2D3
:100A9000082E000C990B0E947207BE01655F7F4F04
:100AA000F80182814AE3082E000C990B0E9472071C
:100AB000BE01625F7F4FF80181814AE3082E000C7E
:100AC000990B0E947207BE016F5E7F4FF801808113
:100AD00040E2082E000C990B0E947207F8018681F3
:100AE000978164E670E08459984F0E946D156B0100
:100AF0007C01BE016C5E7F4F40E2C6010E9472071E
:100B0000BE016A5E7F4F40E0C7010E947207CDB709
:100B1000DEB7E8E00C94FA15A8E0B0E0E2E9F5E011
:100B20000C94DE158B01FC016081718182819381BF
:100B300020E831E541E050E00E94811569017A0129
:100B40002CE330E040E050E00E94A31529833A8373
:100B50004B835C8389819A81AB81BC81F80160837E
:100B60006CE370E00E946D15DC01CB01F801A183FC
:100B70008283C601069667E070E00E94591584835F
:100B80002DEA3EE840E050E0C701B6010E94A315FF
:100B900029833A836D837E838F83988789819A81A5
:100BA00024E6289F6001299FD00C11246D817E814D
:100BB0008F81988525EB35E040E050E00E94A31539
:100BC00029833A836D837E83E980FA80EE0CFF1CD3
:100BD000EE0CFF1CEC0CFD1C8D819E81F5E6EF16E2
:100BE000F10410F0019604C024E6E216F10419F0B5
:100BF00021E030E002C020E030E0A90144595E4F1E
:100C00004817590768F46DE671E0821B930B0E9448
:100C10006D15DC01CB01E80EF91ECD0120E030E0BE
:100C200044E6E40EF11CF801F782E68291878087A2
:100C3000255C3F4F8217930748F46FE170E00E94F4
:100C40006D15DC01CB01F801858322C069E970E0F4
:100C5000821B930B0E946D15DC01CB01F82EFF0C5B
:100C6000FF0CF80E6DE370E0CD010E946D15DC0104
:100C7000CB01E82EEE0C6FE170E0CD010E946D1506
:100C8000DC01CB0122E0280FF20EFE0CF801F58208
:100C9000A383F8011386128683818F5F838328964E
:100CA000E8E00C94FA15A0E0B0E0E9E5F6E00C9479
:100CB000DE158C017B01EA01998388830E948407F9
:100CC000282FA801405D57406DE671E0469FC001A6
:100CD000479F900D569F900D11248E0D9F1D41151D
:100CE000510579F0BA0176956795769567956F5FAE
:100CF0007F4F860F971F821B91094536510508F0DB
:100D00000197069667E070E00E9459156C01892BE7
:100D100019F487E0C82ED12CDD82CC82C7010B9656
:100D20008C199D0967E070E00E946D1565337105AF
:100D3000B1F481E0C81AD108EC18FD08822F90E0C8
:100D400084599E4F23E0E20EF11C8E159F053CF462
:100D50008881998101969983888361E070E07B8323
:100D60006A83672B79F401501109C8010E94840736
:100D7000682F70E064597E4FAE01C8010E9453068F
:100D8000DD82CC82CDB7DEB7E8E00C94FA15A0E0A6
:100D9000B0E0EDECF6E00C94DA15EC01EE81FF81A9
:100DA0008F0104561109B9F0CF01855691096C01E4
:100DB00097FF03C023E0C20ED11CD594C794D594ED
:100DC000C7946CE97FEF0E946D15C60ED71E8FEF9A
:100DD000C81AD80A02C0C12CD12C2DE631E0D801A6
:100DE0000E94C2150D2C000CEE08FF08C60ED71E7F
:100DF000E81EF91E8B81082E000C990B8C01015006
:100E000011092D8122302CF4222379F1015E1F4F2C
:100E10002CC0CF018459984F0E948407282F30E0BE
:100E2000255C3F4F200F311F8D81082E000C990B40
:100E300002978530910514F027563F4F65E070E02A
:100E40000E946D15AC0197FF02C04F5F5F4F559533
:100E500047959DE3949F8001959F100D1124020FEB
:100E6000131F80FF02C0015E1F4FC801110FAA0BA4
:100E7000BB0B9C01AD012C0D3D1D4E1D5F1D60E89F
:100E800071E581E090E00E943B154B015C01AA8175
:100E90000A2E000CBB0B20E13EE00E94C2156B0144
:100EA0007C01A9810A2E000CBB0B2CE330E00E94D0
:100EB000C215C60ED71EE81EF91E6881862F660F62
:100EC000990BAA0BBB0B8C0D9D1DAE1DBF1DBC014C
:100ED000CD01680D791D8A1D9B1DCDB7DEB7ECE0F5
:100EE0000C94F6151F93CF93DF93EB01142F6AE058
:100EF00070E00E946D15605D6883805D89831A8350
:100F0000DF91CF911F9108959C0123703327232BEC
:100F100059F464E670E00E946D15892B39F4637012
:100F2000772781E0672B19F080E0089581E008952C
:100F300086B1806886B986B1876086B987B18064DA
:100F400087B9089597B1907C97B9482F50E0483001
:100F5000510508F5FA01E65DFF4F0C94D80E87B1F4
:100F6000816087B9089587B1826087B9089587B194
:100F7000836087B9089587B1846087B9089587B180
:100F8000856087B9089587B1866087B9089587B16C
:100F9000876087B9089597B18F71892B87B90895B4
:100FA0000E94A20786B1806486B986B184B195B1EA
:100FB0008FE39FE10197F1F700C0000086B18064E4
:100FC00086B986B184B195B108950E94D007BC015D
:100FD000990F880B990B0E94B60D20E030E040E895
:100FE0005AE30E946B0E20E030E048EC52E40E948D
:100FF0006B0E0895811104C087B38F7087BB08956D
:1010000087B3806F87BB88B38F7088BB089598B310
:101010009E7F98BB28B330E1839FC0011124822BAF
:1010200088BB88B3846088BB85E08A95F1F70000AF
:1010300088B38B7F88BB88B38F7088BB089598B3C3
:10104000282F207F922B98BB98B3946098BB35E0F3
:101050003A95F1F7000098B39B7F98BB98B39F70C7
:1010600098BB28B330E1839FC0011124822B88BB39
:1010700088B3846088BB85E08A95F1F7000088B367
:101080008B7F88BB88B38F7088BB089580E00E94F7
:10109000FA0788B38E7F88BB88B3826088BB88B329
:1010A000846088BB85E38A95F1F7000086B388B336
:1010B0008B7F88BB81E00E94FA0788B38D7F88BB55
:1010C0008FE891E00197F1F700C000000895CF93F9
:1010D000C82F0E94460888B38E7F88BB8C2F0E9441
:1010E0001F08CF9108958FEF87BB18BA2FEF83EFBA
:1010F00091E0215080409040E1F700C0000083E083
:101100000E9407088FE59AEE0197F1F700C00000F2
:1011100083E00E9407088FE99FE00197F1F700C084
:10112000000083E00E9407088FE99FE00197F1F734
:1011300000C0000082E00E94070895ED9A95F1F743
:10114000000088E20E9467088CE00E94670886E041
:101150000E94670881E00E9467088FE39CE901977D
:10116000F1F700C000000895CF93C82F0E944608F1
:1011700088B3816088BB8C2F0E941F08CF9108958F
:10118000E82FF0E0E958FF4F8081860F80680E94C9
:1011900067080895EF92FF920F931F93CF93DF9309
:1011A0007C01FC0101900020E9F731978F01081BB9
:1011B000190BC0E0D0E007C0F701EC0FFD1F8081E4
:1011C0000E94B4082196C017D107B1F7DF91CF91E3
:1011D0001F910F91FF90EF9008950E94B408089519
:1011E000EF92FF920F931F93CF93DF93F82EE92E88
:1011F0009F938F9381E790E09F938F931F921F920D
:101200001F921F920E941F108C010F5F1F4F802F93
:10121000912F0E94FE0EEC018DB79EB708960FB677
:10122000F8949EBF0FBE8DBF2097D1F0EF92FF9232
:1012300081E790E09F938F931F930F93DF93CF935A
:101240000E941F10CE010E94CA08CE010E94960F74
:101250008DB79EB708960FB6F8949EBF0FBE8DBF90
:10126000DF91CF911F910F91FF90EF900895BF9262
:10127000CF92DF92EF92FF920F931F93CF93DF9362
:10128000C62ED72EE82EF92EB42E9F938F937F93E0
:101290006F9384E790E09F938F931F921F921F920A
:1012A0001F920E941F1001960E94FE0EEC018DB746
:1012B0009EB70A960FB6F8949EBF0FBE8DBF2097BB
:1012C00079F08E012B2D44E06C2D7D2D8E2D9F2DE0
:1012D0000E94DE0ECE010E94CA08CE010E94960F27
:1012E000DF91CF911F910F91FF90EF90DF90CF9002
:1012F000BF90089511B888E480B9089584EA86BF44
:1013000006B607FEFDCF81B1089584E986BF089532
:10131000880F682B606463B984E886BF06B607FE51
:10132000FDCF81B1089583B984E886BF06B607FE74
:10133000FDCF81B1089584EC86BF06B607FEFDCFD0
:1013400083B1089580E00E94E507609336017093B1
:10135000370180933801909339018FE39CE901971D
:10136000F1F700C0000081E00E94E50760933A01B8
:1013700070933B0180933C0190933D0108958F92BF
:101380009F92AF92BF92CF92DF92EF92FF92CF9354
:10139000DF93CDB7DEB768970FB6F894DEBF0FBE08
:1013A000CDBF6B017C0149015A0184E08B838BE343
:1013B0008A8389838DE08F8785E18E878FE18D8792
:1013C00020E030E040EA51E4C701B6010E94660E19
:1013D00088233CF120E030E040EB51E4C701B60146
:1013E0000E94AF0D1816ECF020E030E040E252E42D
:1013F000C501B4010E94660E88239CF020E030E015
:1014000040E752E4C501B4010E94AF0D18164CF03C
:1014100080916C0090916D009093CF018093CE01EC
:1014200076C120E030E040EA51E4C701B6010E94F5
:10143000AF0D882354F420E030E040E851E4C701C8
:10144000B6010E94660E8823A4F420E030E040EB51
:1014500051E4C701B6010E94660E1816FCF420E0A4
:1014600030E040ED51E4C701B6010E94AF0D1816FF
:10147000ACF020E030E040EF51E4C501B4010E943F
:10148000660E88235CF020E030E04CE852E4C501B1
:10149000B4010E94AF0D18160CF040C020E030E0FF
:1014A00040E252E4C501B4010E94AF0D882354F418
:1014B00020E030E040EF51E4C501B4010E94660E27
:1014C0008823B4F420E030E040E752E4C501B401E1
:1014D0000E94660E18160CF07BC020E030E04CE84D
:1014E00052E4C501B4010E94AF0D18160CF470C08F
:1014F00020E030E040ED51E4C701B6010E94AF0D9D
:1015000088230CF065C020E030E040E851E4C701DA
:10151000B6010E94660E18160CF05AC02091CE013A
:101520003091CF01809168009091690028173907A8
:1015300009F045C0CE010D960E94D3016B017C01DC
:1015400060934A0170934B0180934C0190934D013D
:1015500084E090E01AC09C0121503109F901EE0F9E
:10156000FF1FEE0FFF1FE25BFE4F40815181628142
:101570007381880F991F880F991FFC01E25BFE4F52
:101580004083518362837383C901181619061CF3C3
:10159000C0924E01D0924F01E0925001F092510161
:1015A00081E090E090933F0180933E012FEF89E628
:1015B00098E1215080409040E1F700C00000809108
:1015C0006A0090916B009093CF018093CE019FC0F1
:1015D00020E030E040E851E4C701B6010E94AF0DC1
:1015E0008823FCF020E030E040EF51E4C501B40175
:1015F0000E94AF0D8823ACF020E030E040ED51E4D4
:10160000C701B6010E94660E18165CF020E030E0BB
:101610004CE852E4C501B4010E94660E18160CF0A5
:101620004BC02091CE013091CF0180916A00909102
:101630006B002817390709F03FC0CE0101960E94C0
:10164000D3016B017C016093CA017093CB0180933D
:10165000CC019093CD0184E090E01AC09C01215010
:101660003109F901EE0FFF1FEE0FFF1FE655FE4F88
:101670004081518162817381880F991F880F991F62
:10168000FC01E655FE4F4083518362837383C90199
:10169000181619061CF3C092AA01D092AB01E09271
:1016A000AC01F092AD018091680090916900909337
:1016B000CF018093CE012BC020E030E040E851E420
:1016C000C701B6010E94AF0D181654F420E030E0B7
:1016D00040ED51E4C701B6010E94660E88237CF0FC
:1016E0002091CE013091CF018091660090916700EA
:1016F000822393239093CF018093CE0108C08091E1
:101700006800909169009093CF018093CE01809101
:10171000CE019091CF0168960FB6F894DEBF0FBE50
:10172000CDBFDF91CF91FF90EF90DF90CF90BF9032
:10173000AF909F908F9008951FC080916800909106
:1017400069009093CF018093CE010E94730889E7CE
:1017500090E00E94CA0860E081E00E94C00881E831
:1017600090E00E94CA082FEF83EC99E0215080405E
:101770009040E1F700C00000879BDFCF08950E94F2
:10178000730882E990E00E94CA086AE080E00E9443
:10179000C00860913A0170913B0180913C019091A9
:1017A0003D0141E050E00E9437098FED0E94ED08B5
:1017B00088E990E00E94CA0860E081E00E94C008C9
:1017C0008AE990E00E94CA086AE081E00E94C008AD
:1017D0006091360170913701809138019091390103
:1017E00041E050E00E94370985E20E94ED088091B7
:1017F0003E0190913F01019721F480E990E00E9421
:10180000CA082FEF83EC99E0215080409040E1F727
:1018100000C000000895CF93DF936B3F71058105F1
:10182000910509F4D9C06E3F71058105910509F450
:1018300058C134C10E94A209809140019091410198
:10184000880F991F880F991F86559E4F0E948A0105
:101850009C0141EA50E06EE170E08CE891E00E946A
:101860006A028091400190914101880F991F880F71
:10187000991F825B9E4F0E948A019C0141EA50E0C1
:101880006EE170E08EE691E00E946A0220913601DE
:1018900030913701409138015091390160913A01FE
:1018A00070913B0180913C0190913D010E94BF09E4
:1018B00090934301809342016091420170914301F2
:1018C00081E20E949B0D80E20E94890D809370004E
:1018D00080917000873FD9F480914001909141013F
:1018E000019690934101809340011092460110921D
:1018F000470110924801109249012FEF84E39CE0C8
:10190000215080409040E1F700C000004CC00E9490
:1019100073088AEA90E00E94CA0880914001909181
:1019200041010E94F00880EB90E00E94CA0868E044
:1019300080E00E94C0088091460190914701A091EB
:101940004801B091490188359240A105B10569F47B
:101950008AE090E090934101809340018FEE809364
:10196000700010926F0010926E00C0E0D0E007C0CF
:10197000FE01E457FE4F80810E94ED082196C83099
:10198000D105B4F368E081E00E94C008C0E0D0E077
:1019900007C0FE01E259FE4F80810E94ED082196AA
:1019A000C830D105B4F38091460190914701A091D0
:1019B0004801B09149010196A11DB11D80934601D6
:1019C00090934701A0934801B09349018FE39CE9AC
:1019D0000197F1F700C00000809140019091410112
:1019E00005970CF427CF1CC00E94730880E20E9468
:1019F000890D8093700083EB90E00E94CA0860E03C
:101A000081E00E94C00882EC90E00E94CA089FEF2B
:101A100021EE84E0915020408040E1F700C00000BA
:101A2000809170008F3D21F0809170008F3EE1F633
:101A3000809170008F3E29F516C0C901880F991F4B
:101A4000880F991FFC01E655FE4F10821182128209
:101A50001382FC01E25BFE4F10821182128213821C
:101A60002F5F3F4F02C020E030E0263031052CF3DD
:101A700010923F0110923E011092410110924001DC
:101A800030C0809170008F3D61F510923F0110923F
:101A90003E01109241011092400123C00E949C0B14
:101AA0000E94A209209136013091370140913801FE
:101AB0005091390160913A0170913B0180913C0154
:101AC00090913D010E94BF0990934501809344018C
:101AD000609144017091450181E20E949B0D0E943A
:101AE000BF0BDF91CF91089582B3876082BB81B332
:101AF000876081BB0E94980780E20E94890D8093D5
:101B000070006091700070E080E090E00E940B0C2B
:101B1000F3CFCF93C82F0E947A090E947E0961E01B
:101B20008C2F0E9488090E949B09C82F0E9485095A
:101B30008C2FCF910895CF93DF93D82FC62F0E947B
:101B40007A090E947E0960E08D2F0E9488098C2FFF
:101B50000E9493090E948509DF91CF9108950E9408
:101B6000F10D08F481E00895E89409C097FB3EF474
:101B700090958095709561957F4F8F4F9F4F9923DA
:101B8000A9F0F92F96E9BB279395F6958795779558
:101B90006795B795F111F8CFFAF4BB0F11F460FF18
:101BA0001BC06F5F7F4F8F4F9F4F16C0882311F070
:101BB00096E911C0772321F09EE8872F762F05C084
:101BC000662371F096E8862F70E060E02AF09A951F
:101BD000660F771F881FDAF7880F9695879597F914
:101BE0000895990F0008550FAA0BE0E8FEEF1616AE
:101BF0001706E807F907C0F012161306E407F50701
:101C000098F0621B730B840B950B39F40A2661F074
:101C1000232B242B252B21F408950A2609F4A14017
:101C2000A6958FEF811D811D089597F99F6780E824
:101C300070E060E008959FEF80EC089500240A941E
:101C40001616170618060906089500240A94121697
:101C50001306140605060895092E0394000C11F4CA
:101C6000882352F0BB0F40F4BF2B11F460FF04C077
:101C70006F5F7F4F8F4F9F4F089557FD9058440FD0
:101C8000551F59F05F3F71F04795880F97FB991FDB
:101C900061F09F3F79F08795089512161306140698
:101CA000551FF2CF4695F1DF08C016161706180625
:101CB000991FF1CF86957105610508940895E89400
:101CC000BB2766277727CB0197F908950E94F10D6E
:101CD00008F48FEF08950E947E0E0C942C0E0E9443
:101CE0001E0E38F00E94250E20F0952311F00C9462
:101CF000150E0C941B0E11240C94600E0E943D0EC8
:101D000070F3959FC1F3950F50E0551F629FF0014E
:101D1000729FBB27F00DB11D639FAA27F00DB11D67
:101D2000AA1F649F6627B00DA11D661F829F2227F0
:101D3000B00DA11D621F739FB00DA11D621F839F77
:101D4000A00D611D221F749F3327A00D611D231F4D
:101D5000849F600D211D822F762F6A2F11249F579B
:101D600050409AF0F1F088234AF0EE0FFF1FBB1F9E
:101D7000661F771F881F91505040A9F79E3F51055D
:101D800080F00C94150E0C94600E5F3FE4F3983EC7
:101D9000D4F3869577956795B795F795E7959F5F07
:101DA000C1F7FE2B880F911D9695879597F9089599
:101DB000EE0FFF1F0590F491E02D0994EF920F9321
:101DC0001F93CF93DF93E80147FD02C034E001C0C9
:101DD00034E1042E000C550B57FF03C0519541957B
:101DE0005109E32E022F242FAE010E943012CE01A2
:101DF000DF91CF911F910F91EF9008950F931F9353
:101E0000CF93DF938230910510F482E090E0E0916F
:101E1000D201F091D30120E030E0A0E0B0E03097B3
:101E200019F1408151810281138148175907C8F087
:101E30008417950769F4109731F012960C93129756
:101E400013961C9327C00093D2011093D30122C094
:101E50002115310519F04217530718F49A01BD01F5
:101E6000EF01DF01F801DBCF21153105F9F0281B67
:101E7000390B2430310580F48A819B81611571050D
:101E800021F0FB019383828304C09093D30180935C
:101E9000D201FE01329644C0FE01E20FF31F81938E
:101EA000919322503109398328833AC02091D0017F
:101EB0003091D101232B41F42091620030916300D5
:101EC0003093D1012093D0012091600030916100C6
:101ED0002115310541F42DB73EB740916400509172
:101EE0006500241B350BE091D001F091D101E21780
:101EF000F307A0F42E1B3F0B2817390778F0AC012D
:101F00004E5F5F4F2417350748F04E0F5F1F509309
:101F1000D1014093D0018193919302C0E0E0F0E0C1
:101F2000CF01DF91CF911F910F910895CF93DF9350
:101F3000009709F481C0FC01329713821282A091AC
:101F4000D201B091D301109781F420813181820FA9
:101F5000931F2091D0013091D1012817390751F5F5
:101F6000F093D101E093D00167C0ED0120E030E0B3
:101F7000CE17DF0740F44A815B819E014115510570
:101F8000F1F0EA01F5CFD383C28340815181840F00
:101F9000951FC817D90759F488819981840F951F17
:101FA0000296918380838A819B819383828321150A
:101FB000310529F4F093D301E093D2013DC0E9014A
:101FC000FB83EA8349915991C40FD51FEC17FD0794
:101FD00061F480819181840F951F0296E9019983B4
:101FE0008883828193819B838A83E0E0F0E012966C
:101FF0008D919C911397009719F0FD01DC01F7CFAB
:102000008D919C9111979D012E5F3F4F820F931FE1
:102010002091D0013091D1012817390769F4309708
:1020200029F41092D3011092D20102C013821282BD
:10203000B093D101A093D001DF91CF910895AEE08C
:10204000B0E0E5E2F0E10C94E2150D891E898F897C
:10205000988D26E02C831A83098397FF02C080E0C5
:1020600090E801979E838D83AE01455E5F4F698D39
:102070007A8DCE0101960E944F104D815E8157FDF1
:102080000AC02F813885421753070CF49A01F801D2
:10209000E20FF31F10822E96E4E00C94FE15ABE0E5
:1020A000B0E0E5E5F0E10C94D4156C017B018A0108
:1020B000FC0117821682838181FFCCC1CE0101967B
:1020C0003C01F6019381F70193FD859193FF819186
:1020D0007F01882309F4BAC1853239F493FD8591D3
:1020E00093FF81917F01853229F4B60190E00E942F
:1020F0007F14E7CF912C212C312CFFE1F315D8F080
:102100008B3279F038F4803279F08332A1F4232DC8
:1021100020611DC08D3261F0803369F4232D216070
:1021200016C0832D8260382EE32DE4603E2E2AC037
:10213000F32DF8601DC037FC2DC020ED280F2A308C
:1021400040F08E32B9F436FC81C1232D2064322E4A
:1021500019C036FE06C08AE0989E200D1124922EEA
:1021600011C0EAE02E9E200D1124222EF32DF062E4
:102170003F2E08C08C3621F4832D8068382E02C093
:10218000883641F4F70193FD859193FF81917F019A
:102190008111B3CF982F9F7D9554933028F40C5F15
:1021A0001F4F9FE399830DC0833631F0833771F061
:1021B000833509F059C021C0F801808189830E5F01
:1021C0001F4F88248394912C530113C02801F2E0FF
:1021D0004F0E511CF801A080B18036FE03C0692D5E
:1021E00070E002C06FEF7FEFC5010E9474144C01D4
:1021F0008201F32DFF773F2E16C0280122E0420E08
:10220000511CF801A080B18036FE03C0692D70E03A
:1022100002C06FEF7FEFC5010E9462144C01F32DE5
:10222000F0683F2E820133FC1BC0822D90E088169F
:102230009906B0F4B60180E290E00E947F142A94DF
:10224000F4CFF50137FC859137FE81915F01B6012E
:1022500090E00E947F1421102A9421E0821A9108B4
:102260008114910471F7E8C0843611F0893641F584
:10227000F80137FE07C060817181828193810C5F14
:102280001F4F08C060817181072E000C880B990BCD
:102290000E5F1F4FF32DFF763F2E97FF09C09095DD
:1022A0008095709561957F4F8F4F9F4FF0683F2EBF
:1022B0002AE030E0A3010E94DD14882E861845C074
:1022C000853731F4232D2F7EB22E2AE030E025C051
:1022D000932D997FB92E8F36C1F018F4883579F097
:1022E000B5C0803719F0883721F0B0C0E92FE06120
:1022F000BE2EB4FE0DC0FB2DF460BF2E09C034FE0F
:102300000AC0292F2660B22E06C028E030E005C0A2
:1023100020E130E002C020E132E0F801B7FE07C062
:1023200060817181828193810C5F1F4F06C0608143
:10233000718180E090E00E5F1F4FA3010E94DD14C9
:10234000882E8618FB2DFF773F2E36FE0DC0232DDD
:102350002E7FA22E891458F434FE0BC032FC09C023
:10236000832D8E7EA82E05C0B82CA32C03C0B82CBC
:1023700001C0B92CA4FE0FC0FE01E80DF11D808143
:10238000803321F49A2D997EA92E09C0A2FE06C0A1
:10239000B394B39404C08A2D867809F0B394A3FC57
:1023A00011C0A0FE06C0B21488F4280C922C9B1811
:1023B0000EC0B21460F4B60180E290E00E947F1477
:1023C000B394F7CFB21418F42B1802C0982C212C18
:1023D000A4FE10C0B60180E390E00E947F14A2FE2C
:1023E00017C0A1FC03C088E790E002C088E590E038
:1023F000B6010CC08A2D867859F0A1FE02C08BE28E
:1024000001C080E2A7FC8DE2B60190E00E947F143B
:10241000891438F4B60180E390E00E947F149A9406
:10242000F7CF8A94F301E80DF11D8081B60190E0A9
:102430000E947F148110F5CF222009F442CEB6010C
:1024400080E290E00E947F142A94F6CFF601868104
:10245000978102C08FEF9FEF2B96E2E10C94F0156D
:10246000A9E0B0E0E6E3F2E10C94DA156A01122F7C
:10247000B02E2BE3201720F0FF24F394F00E02C0BF
:102480002CE3F22E0F2D27E0AE014F5F5F4F0E942D
:102490008A13BC014981842F8970813031F0E1FCBD
:1024A00006C0E0FE06C090E205C09DE203C09BE2CC
:1024B00001C090E05E2D507143FF3CC0911102C0FD
:1024C00083E001C084E0811718F4212F281B01C08C
:1024D00020E051110BC0F601822F30E2882319F061
:1024E00031938150FBCFC20ED11C20E0992329F0FB
:1024F000D6019C93F60131966F01C6010396E2FE68
:102500000AC03EE4D6013C9341E411964C931197E6
:1025100012963C9306C03EE6F601308341E64183C5
:102520003283FC01322F40E2332309F442C041934D
:102530003150FACF42FF44C0911102C083E001C084
:1025400084E0811718F4212F281B01C020E05111CD
:102550000BC0F601822F30E2882319F031938150AD
:10256000FBCFC20ED11C20E0992329F0D6019C9309
:10257000F60131966F01C6010396E2FE0BC039E405
:10258000D6013C933EE411963C93119736E41296A3
:102590003C9307C039E6F60130833EE6318336E6E8
:1025A0003283FC01322F40E2332319F04193315042
:1025B000FBCFFC01E20FF11D10828EEF9FEFA6C052
:1025C00021E030E0911102C020E030E0161617063D
:1025D0001CF4FB01319602C0E1E0F0E02E0F3F1F3A
:1025E000BB2021F0EB2DF0E0319602C0E0E0F0E0FE
:1025F0002E0F3F1FE12FF0E02E173F071CF4121B98
:10260000212F01C020E08E2D887159F4F601822F10
:1026100030E2882319F031938150FBCFC20ED11CD8
:1026200020E0992329F0D6019C93F60131966F01A1
:1026300051110BC0F601822F90E3882319F091937A
:102640008150FBCFC20ED11C20E00F2D060F9A81C6
:10265000342F307144FF03C0913309F40150101638
:1026600024F4093018F008E001C001E0AB0177FF65
:1026700002C040E050E0FB01E41BF50BA1E0B0E03C
:10268000AC0FBD1FEA0FFB1F8EE2A82E4B01801A74
:1026900091080B2D10E01195019511094F3FBFEFE7
:1026A0005B0721F4D601AC9211966D016417750792
:1026B0002CF08416950614F4818101C080E341500A
:1026C00051093196D60111967D014017510724F02A
:1026D000D6018C936701E2CF6417750739F49633FE
:1026E00020F4953319F4311101C081E3F6018083A0
:1026F000F701822F90E2882319F091938150FBCF4C
:10270000F701E20FF11D108280E090E02996ECE0E5
:102710000C94F615283008F027E03327DA01990FDA
:10272000311D87FD916000966105710539F43260B5
:102730002E5F3D9330E32A95E1F708959F3F30F0F7
:1027400080387105610509F03C5F3C5F3D93913035
:1027500008F08068911DDF93CF931F930F93FF9232
:10276000EF92192F987F9695E92F96959695E90FF8
:10277000FF27E659FE4F99273327EE24FF24A701B0
:10278000E70105900894079428F4360FE71EF81E19
:10279000491F511D660F771F881F991F0694A1F7C7
:1027A0000590079428F4E70EF81E491F561FC11D17
:1027B000770F881F991F661F0694A1F7059007944D
:1027C00028F4F80E491F561FC71FD11D880F991FE7
:1027D000661F771F0694A1F70590079420F4490F10
:1027E000561FC71FD81F990F661F771F881F069493
:1027F000A9F784911095177041F0D695C795579514
:102800004795F794E7941A95C1F7E0E1F1E06894F1
:102810001590159135916591959105907FE273958D
:10282000E118F10A430B560BC90BD009C0F7E10CB4
:10283000F11E431F561FC91FD01D7EF4703311F4C3
:102840008A95E6CFE894015030F0080F0AF400278B
:10285000021708F4202F2395022F7A3328F079E30A
:102860007D932A95E9F710C07D932A9589F6069401
:1028700097956795379517951794E118F10A430BCB
:10288000560BC90BD00998F023957E9173957A3336
:1028900008F070E37C932013B8F77E9170617D930C
:1028A00030F0839571E37D9370E32A95E1F711246D
:1028B000EF90FF900F911F91CF91DF91992787FDA6
:1028C00090950895FC010590615070400110D8F773
:1028D000809590958E0F9F1F0895FB01DC0101905C
:1028E0000D920020E1F70895FC01615070400190C5
:1028F0000110D8F7809590958E0F9F1F08950F9324
:102900001F93CF93DF93FB01238121FD03C08FEF42
:102910009FEF2CC022FF16C046815781248135814C
:102920004217530744F4A081B1819D012F5F3F4FAF
:10293000318320838C93268137812F5F3F4F3783EC
:10294000268314C08B01EC01FB010084F185E02D8E
:102950000995892BE1F6D80116968D919C911797D0
:10296000019617969C938E931697CE01DF91CF9187
:102970001F910F910895AEE0B0E0E1ECF4E10C940A
:10298000E2150D891E8986E08C831A8309838FEFF7
:102990009FE79E838D83AE01475E5F4F6F89788D81
:1029A000CE0101960E944F10EF81F885E00FF11FD4
:1029B00010822E96E4E00C94FE15FA01AA27283026
:1029C00051F1203181F1E8946F936E7F6E5F7F4FFC
:1029D0008F4F9F4FAF4FB1E03ED0B4E03CD0670F78
:1029E000781F891F9A1FA11D680F791F8A1F911DCB
:1029F000A11D6A0F711D811D911DA11D20D009F41B
:102A000068943F912AE0269F11243019305D31935C
:102A1000DEF6CF010895462F4770405D4193B3E045
:102A20000FD0C9F7F6CF462F4F70405D4A3318F0EC
:102A3000495D31FD4052419302D0A9F7EACFB4E09D
:102A4000A6959795879577956795BA95C9F7009755
:102A50006105710508959B01AC010A2E06945795F6
:102A6000479537952795BA95C9F7620F731F841F4D
:102A7000951FA01D0895DB018F939F930E94C91598
:102A8000BF91AF91A29F800D911DA39F900DB29F0A
:102A9000900D1124089587FB082E062687FD819549
:102AA00067FD61950E940B160EF4919507FC8195C8
:102AB0000895AA1BBB1B51E107C0AA1FBB1FA61785
:102AC000B70710F0A61BB70B881F991F5A95A9F7D7
:102AD00080959095BC01CD01089597FB072E16F4C3
:102AE000009407D077FD09D00E94591507FC05D046
:102AF0003EF4909581959F4F0895709561957F4F15
:102B00000895A1E21A2EAA1BBB1BFD010DC0AA1F2E
:102B1000BB1FEE1FFF1FA217B307E407F50720F046
:102B2000A21BB30BE40BF50B661F771F881F991FC1
:102B30001A9469F760957095809590959B01AC010A
:102B4000BD01CF010895052E97FB1EF400940E944D
:102B5000BA1557FD07D00E94811507FC03D04EF42B
:102B60000C94BA1550954095309521953F4F4F4F95
:102B70005F4F089590958095709561957F4F8F4F29
:102B80009F4F08950E941716B7FF0895821B930B5D
:102B900008950E941716A59F900DB49F900DA49FB5
:102BA000800D911D112408952F923F924F925F92B4
:102BB0006F927F928F929F92AF92BF92CF92DF924D
:102BC000EF92FF920F931F93CF93DF93CDB7DEB7B2
:102BD000CA1BDB0B0FB6F894DEBF0FBECDBF099446
:102BE0002A88398848885F846E847D848C849B849D
:102BF000AA84B984C884DF80EE80FD800C811B81AB
:102C0000AA81B981CE0FD11D0FB6F894DEBF0FBED9
:102C1000CDBFED010895991B79E004C0991F961767
:102C200008F0961B881F7A95C9F780950895A29F92
:102C3000B001B39FC001A39F700D811D1124911D90
:102C4000B29F700D811D1124911D0895F894FFCF3E
:102C50000000E6012000F700DF00BF007F00010058
:102C6000FF256400256600004041636874756E6747
:102C7000004572736368756574746572756E67205C
:102C8000210054656D703A00430048756D69643ADF
:102C90000025483A254D3A2553005A6569742000AD
:102CA0003A20005A6569746C6F65736368656E20BD
:102CB0003F0059285335292F4E2853362900252EF9
:102CC00032752F252E32752F252E32750025326450
:102CD0000025642D252E32642D252E326400252EEC
:102CE000346400252E3375002532643A252E326473
:102CF0003A252E326420414D000900252E32643AD7
:102D0000252E32643A252E326400257500252E3298
:102D1000753A252E32753A252E327500252B2E3226
:062D200064252E32640060
:00000001FF
